:04000000FBEF05F01D
:08000800046ED8CF05F0E0CF33
:1000100006F00001E9CF0CF0EACF07F0E1CF08F0DD
:10002000E2CF09F0D9CF0AF0DACF0BF0F3CF12F01C
:10003000F4CF13F0FACF14F000C00EF001C00FF0AF
:1000400002C010F003C011F09DA02AEF00F09EB096
:1000500051EF00F0F2A830EF00F0F2B263EF00F0E1
:100060000EC000F00FC001F010C002F011C003F08C
:100070000CC0E9FF07C0EAFF078E08C0E1FF09C016
:10008000E2FF0AC0D9FF0BC0DAFF12C0F3FF13C0B2
:10009000F4FF14C0FAFF045006C0E0FF05C0D8FF0B
:1000A0001000010E3E269E9030EF00F0030E625EBF
:1000B00009E3EA6A620EE96EEF5004E001D000D075
:1000C000EF2EFDD7120093988A9843C061F0612A01
:1000D0006106D8B403D06268E9DFFAD742C062F0A3
:1000E000E5DF93988A88F292F29230EF00F02D2D9E
:1000F0002D2D2D2D2D2D0A54656D70203D2025327E
:10010000752047726175730A204572726F203D2019
:10011000253266200A50726F70203D2025326620FD
:100120000A496E7467203D20253266200A504944F2
:100130003D202532660A74656D706F203D2025389C
:1001400066200A2056616C6F72203D2025324C7566
:100150000A202D2D2D2D2D2D2D2D0A00496E696380
:1001600069616C697A616E646F2050726F6A657440
:100170006F5049440A000900F5520DE0F6CF47F0F0
:10018000F7CF48F0F5509EA8FED7AD6E47C0F6FFFA
:1001900048C0F7FFF0D74EEF06F0800ED8B2501AE5
:1001A000556A566A4CC054F05050541A4B50D8B44B
:1001B000DCD0536E006E4F50D8B4E0D0535ED8B44C
:1001C00081D03DE350C059F0598E51C058F052C013
:1001D00057F0566AD8905932583257325632532E09
:1001E000F8D754AE03D05580DDD055905390558844
:1001F000EA6A4E0EE96EE9D0559854BE0AD053A073
:1002000013D05932583257325632002AD8B4C5D09A
:100210000BD059BE0CD0D890563657365836593672
:100220000006D8B4BAD0F5D7558C6BD0559C4CC0CD
:1002300054F04CAE02D0598EA9D0599EA7D04FC0D1
:1002400053F04FC000F04B50535E4CC059F0598EE4
:100250004DC058F04EC057F0566AD89059325832B7
:1002600057325632532EF8D754AE03D055829AD017
:1002700055925390558AEA6A520EE96EA6D0559A65
:1002800054BE0AD053A013D0593258325732563286
:10029000002AD8B482D00BD059BE0CD0D890563694
:1002A0005736583659360006D8B477D0F5D7558E1C
:1002B00028D0559E50C054F050AE02D0598E66D012
:1002C000599E64D050C059F0598E51C058F052C058
:1002D00057F054AE04D0599E558464D05594566A54
:1002E0005390EA6A4E0EE96E70D054BE1CD04CC0DA
:1002F00054F053A006D05932583257325632002AA1
:100300004CE056AE0BD0572A09E1582A07E1592A8A
:1003100005E1593258325732002A3FE055BC86D7A2
:1003200055BEC7D71CD0800E591A59AE04D03AD04A
:1003300050C054F00AD04CC054F0595206E1585203
:1003400004E1575202E1006A21D059BE08D0D8908A
:100350005636573658365936002EF7D71ED054AE7B
:1003600002D0598E13D0599E11D04FC000F050C00A
:1003700059F051C058F052C057F008D04BC000F0AF
:100380004CC059F04DC058F04EC057F059C001F064
:1003900058C002F057C003F034D0006A016A026A04
:1003A000036A2FD0566A571E581E591E561E562ACB
:1003B00005E1572A03E1582A01E1592A55B015D71A
:1003C00055B256D755B48AD7B3D7EF50572605E361
:1003D000582A03E1592AD8B45380ED52EF505826D9
:1003E00003E3592AD8B45380ED52EF50EFBE01D049
:1003F000800A5926D8B0538055B8FED655BA3FD793
:1004000074D712008E0E006E4750005E48C002F096
:1004100049C001F0028E005209E0D890025202E178
:10042000015204E002320132002EF7D748AE05D067
:10043000011E021E012AD8B4022A12008E0E006E7E
:1004400049C001F048C002F0036A015209E102C04C
:1004500001F0026A080E005E015202E1006A08D053
:10046000D89001BE04D0023601360006F9D7019EAD
:1004700012005450D8B471D0006E5850D8B46DD01A
:10048000002604E3810E002668E204D07F0E005EA1
:1004900064E363E055C05CF059505C1A558E598E88
:1004A00057505B02F4CF5EF056505A02F4CF03F07F
:1004B000F3CF5DF05B02F3505E26F4505D22000E38
:1004C000032257505A02F3505E26F4505D22000E6C
:1004D000026A0322022255505B02F3505D26F4505B
:1004E0000322000E022255505A02F3500326F45004
:1004F0000222000E016A012257505902F3505D2674
:10050000F4500322000E0222012256505902F350E9
:100510000326F4500222000E012255505902F350D6
:100520000226F4500122002A01BE05D05D360336B2
:10053000023601360006000E5DAE0AD0032A022202
:100540000122015005E1025003E1035001E1002ABC
:100550005CBE018E5CAE019E04D0006A016A026A34
:10056000036A12004B50D8B4A5D0576E4F50D8B480
:10057000A1D0575E05E37F0E5726D8B09BD006D09A
:10058000810E575ED8A096D0D8B494D057C000F052
:10059000016A026A036A566A4CC055F0558E4DC016
:1005A00054F04EC053F0190E576E5250535E0DE288
:1005B000010E545E0AE2555E08E2565E06E2562AD5
:1005C000552A542A5250532628D05150545E12E2D4
:1005D000010E555E0FE2565E0DE2562A552A515025
:1005E00054265250532619E3542A17E1552A15E18F
:1005F000562A13D050508009555E0EE2010E565E09
:100600000BE2562A50508009552651505426E9E3F2
:10061000552AE7E1562AE5D70380572E01D00BD0A3
:10062000D8905336543655365636D890033602365F
:1006300001365836BAD758A006D0D89001320232C7
:100640000332583202D0000635E058BE1ED0D89092
:1006500053365436553656365250535E07E2010E25
:10066000545E04E2555E02E2565E1AE35150545E57
:1006700005E2010E555E02E2565E12E3505080091B
:10068000555E03E2010E565E0BE3032A09E1022ADE
:1006900007E1012A05E1002A0DE0013202320332AE
:1006A0004CC057F05050571A57AE02D0018E06D0AA
:1006B000019E04D0006A016A026A036A120048C0FF
:1006C0004FF04C504F1A4FAE05D0D894D89048BE3A
:1006D000D8802FD048C04FF04BC050F04750505EEC
:1006E00006E04FAE26D0D850010AD86E22D04CC0BA
:1006F00050F04850505E06E04FAE1BD0D850010A73
:10070000D86E17D04DC050F04950505E06E04FAE45
:1007100010D0D850010AD86E0CD04EC050F04A50BC
:10072000505E06E04FAE05D0D850010AD86E01D019
:10073000D890E8EF07F00900F6CF48F0F7CF49F07E
:10074000F5509EA8FED7AD6E48C0F6FF49C0F7FF32
:10075000472EF1D712004A50016A495C03E249C0B2
:1007600000F00CD0006A080E4B6E493600364A5035
:10077000005CD8B0006E01364B2EF7D71200015046
:1007800047C049F0640E4A6EE6DF00C047F00150F2
:10079000300E07E148A20DD048B60BD048B8200E65
:1007A00003D0489648984880012601509EA8FED75D
:1007B000AD6E47C049F00A0E4A6ECDDF00C047F06B
:1007C0000150300E06E148B609D048A007D048B81D
:1007D000200E012601509EA8FED7AD6E300E472692
:1007E00047509EA8FED7AD6E7CEF05F05450B6087A
:1007F000546E036A55C058F0558ED8905532563213
:1008000057320332023201320032542EF6D758AE3C
:100810000BD0001E011E021E031E002AD8B4012A9E
:10082000D8B4022AD8B4032A1200D8B203D0EA6A94
:100830005C0EE96E006A016A026A036A5C6A5D6ABC
:100840005E6A5F6A5B505A10591058102CE0200EF7
:10085000606ED89054365536563657365C365D360F
:100860005E365F365B505F5C08E15A505E5C05E1C6
:1008700059505D5C02E158505C5C0FE358505C5E7F
:100880005950D8A0593C5D5E5A50D8A05A3C5E5E83
:100890005B50D8A05B3C5F5ED880003601360236E4
:1008A0000336602ED6D75CC0EFFF5DC0ECFF5EC0A4
:1008B000ECFF5FC0ECFF1200E9504C6E4B504E6EE7
:1008C00019E04AC057F049C056F048C055F047C03B
:1008D00054F05B6A5A6A200E596E820E586EC9DD5A
:1008E00003C04AF002C049F001C048F000C047F020
:1008F0004E2EE7D74AC057F049C056F048C055F0D1
:1009000047C054F073DF03C04AF002C049F001C091
:1009100048F000C047F04AAE0DD04C064C8A471E46
:10092000481E491E4A1E472AD8B4482AD8B4492A24
:10093000D8B44A2A3B0E536E9A0E526ECA0E516EAE
:10094000506A0A0E4E6E4B50D8B44C2AD882EA6ACE
:10095000470EE96E4AC057F049C056F048C055F0FE
:1009600047C054F053C05BF052C05AF051C059F028
:1009700050C058F05ADF015000520FE14B284E5C36
:100980000CE04C500CE00F0B4E5C01E03BE24CBE27
:1009900039D04CBC04D0200E30D0200E4C164CAABE
:1009A0000DD04C9A4B50D8A44C0600504C6E2D0ED6
:1009B0009EA8FED7AD6E4C50006E4C6A4B504E5CFC
:1009C0000BE100504C6E2E0E9EA8FED7AD6E4C5023
:1009D000006E200E4C16000E300E4CAA0ED04C9A13
:1009E0004B50D8A44C0600504C6E2D0E9EA8FED73E
:1009F000AD6E4C50006E4C6A300E002600509EA822
:100A0000FED7AD6ED89253C057F052C056F051C0C9
:100A100055F050C054F05B6A5A6A596A0A0E586E13
:100A200004DF03C053F002C052F001C051F000C017
:100A300050F04E2E8BD71200E9504B6E3B0E526E8B
:100A40009A0E516ECA0E506E4F6A0A0E4D6ED882C3
:100A5000EA6A470EE96E4AC057F049C056F048C0EE
:100A600055F047C054F052C05BF051C05AF050C02E
:100A700059F04FC058F0D9DE015000520FE14D50EF
:100A8000010A0CE04B500BE00F0B4D5C01E00DE256
:100A90004BBE0BD04BBC03D0200E02D04B6A300EA5
:100AA000002600509EA8FED7AD6ED89252C057F0D7
:100AB00051C056F050C055F04FC054F05B6A5A6AAE
:100AC000596A0A0E586EB1DE03C052F002C051F0EE
:100AD00001C050F000C04FF04D2EB9D7F2EF05F035
:100AE000EE0EF66E000EF76E100E476E24DE3FC05F
:100AF00047F0110E486E43D6010EF66E010EF76EEA
:100B00000F0E476E18DE890EE96E1DC04AF01CC03C
:100B100049F01BC048F01AC047F0060E4B6ECCDE01
:100B2000130EF66E010EF76E090E476E04DE890E87
:100B3000E96E2DC04AF02CC049F02BC048F02AC005
:100B400047F0060E4B6EB8DE1F0EF66E010EF76E06
:100B5000090E476EF0DD890EE96E31C04AF030C0F3
:100B600049F02FC048F02EC047F0060E4B6EA4DEB1
:100B70002B0EF66E010EF76E070E476EDCDD890E4A
:100B8000E96E39C04AF038C049F037C048F036C085
:100B900047F0060E4B6E90DE350EF66E010EF76EC8
:100BA000090E476EC8DD070EE96E19C04AF018C07D
:100BB00049F017C048F016C047F0060E4B6E7CDEB9
:100BC000410EF66E010EF76E0B0E476EB4DD020E8F
:100BD000E96E45C04AF044C049F043C048F042C005
:100BE00047F02AD7500EF66E010EF76E0B0E476EC9
:100BF000A2DD02EF08F0F86AD09E078E810EAF6E7C
:100C0000A60EAC6E900EAB6E196A186A176A166A59
:100C1000216A206A400E1F6E810E1E6E8F0E256E99
:100C2000C20E246E750E236E780E226E296A286A13
:100C3000276A266A316A306A2F6A2E6A3D6A3C6AE0
:100C4000480E3B6E840E3A6E3E6A416A456A446ABB
:100C5000436A426AC180C182C184C196C190C18287
:100C6000C184C186C19CC28CC28EC18EC280000E5E
:100C7000016EC250C70B0110C26EB50ECD6E196A5F
:100C8000186A176A166A9D80F288EF8CC00EF212FD
:100C90005C0EF66E010EF76EBBEF00F0D8823DC021
:100CA0004EF03CC04DF03BC04CF03AC04BF0526AA5
:100CB000516A580E506E830E4F6ECDEC00F003C09B
:100CC0004AF002C049F001C048F000C047F002EC11
:100CD00002F001C040F03E500F08D8A4C8D1C28431
:100CE000C2B4FED7C3CF46F0496A46C048F01EECF6
:100CF00002F0576A566A200E556E810E546E03C07C
:100D00005BF002C05AF001C059F000C058F039EC55
:100D100002F003C04AF002C049F001C048F000C030
:100D200047F003C057F002C056F001C055F000C0B4
:100D300054F05B6A5A6A480E596E850E586E39EC4B
:100D400002F003C04AF002C049F001C048F000C000
:100D500047F003C04EF002C04DF001C04CF000C09F
:100D60004BF0526AC00E516E7F0E506E880E4F6E61
:100D7000B2EC02F003C04AF002C049F001C048F0F2
:100D800000C047F002EC02F001C03FF0496A3FC0EA
:100D900048F01EEC02F0D8823DC04EF03CC04DF051
:100DA0003BC04CF03AC04BF003C052F002C051F0CF
:100DB00001C050F000C04FF0CDEC00F003C01DF0BA
:100DC00002C01CF001C01BF000C01AF01DC057F09B
:100DD0001CC056F01BC055F01AC054F021C05BF087
:100DE00020C05AF01FC059F01EC058F039EC02F074
:100DF00003C02DF002C02CF001C02BF000C02AF07F
:100E00001DC057F01CC056F01BC055F01AC054F05E
:100E100025C05BF024C05AF023C059F022C058F01E
:100E200039EC02F0D89231C04EF030C04DF02FC0F6
:100E30004CF02EC04BF003C052F002C051F001C084
:100E400050F000C04FF0CDEC00F003C031F002C014
:100E500030F001C02FF000C02EF03F50415C496AD5
:100E6000486E1EEC02F003C057F002C056F001C0FD
:100E700055F000C054F029C05BF028C05AF027C0DC
:100E800059F026C058F039EC02F003C035F002C02A
:100E900034F001C033F000C032F03FC041F0D892CE
:100EA0002DC04EF02CC04DF02BC04CF02AC04BF0A2
:100EB00031C052F030C051F02FC050F02EC04FF072
:100EC000CDEC00F003C04AF002C049F001C048F088
:100ED00000C047F0D89203C04EF002C04DF001C0F0
:100EE0004CF000C04BF035C052F034C051F033C06C
:100EF00050F032C04FF0CDEC00F003C039F002C02A
:100F000038F001C037F000C036F039C04EF038C0BC
:100F10004DF037C04CF036C04BF0526A516A480E63
:100F2000506E850E4F6EB2EC02F0B90E576EFC0E8D
:100F3000566E870E556E780E546E03C05BF002C07D
:100F40005AF001C059F000C058F039EC02F0D892C4
:100F5000B90E4E6EFC0E4D6E070E4C6E780E4B6E3B
:100F600003C052F002C051F001C050F000C04FF079
:100F7000CDEC00F003C04AF002C049F001C048F0D7
:100F800000C047F003C057F002C056F001C055F052
:100F900000C054F05B6A5A6A7A0E596E880E586E19
:100FA00039EC02F003C019F002C018F001C017F0CC
:100FB00000C016F019C04AF018C049F017C048F038
:100FC00016C047F04E6A4D6A4C6A4B6A5FEF03F0F9
:100FD00018E319C057F018C056F017C055F016C0E6
:100FE00054F05B6A5A6A800E596E7F0E586E39EC67
:100FF00002F003C019F002C018F001C017F000C0E1
:1010000016F06ED519C057F018C056F017C055F03D
:1010100016C054F05B6A5A6A7A0E596E880E586E82
:1010200039EC02F003C057F002C056F001C055F091
:1010300000C054F0F6EC03F003C045F002C044F0E9
:1010400001C043F000C042F045520AE1445208E1B9
:1010500043501F080BE2FF0A03E142503A0806E240
:10106000456A446A200E436E3A0E426E3E6A33D69B
:0210700003007B
:020000040030CA
:0E00000000220C0E000181000FC00FE00F4027
:00000001FF
;PIC18F452
;CRC=213B  CREATED="19-nov-19 12:16"
